:020000040800F2
:10000000F0090020C1010008C5500008854800081B
:1000100000000000000000000000000000000000E0
:10002000000000000000000000000000C9500008AF
:100030000000000000000000C75000083151000817
:10004000D3010008D3010008D3010008D301000840
:10005000D3010008D3010008D3010008D301000830
:10006000D3010008D3010008D3010008D301000820
:10007000D3010008D3010008D3010008D301000810
:10008000D30100083D510008D3010008D301000846
:10009000D3010008D3010008D3010008D3010008F0
:1000A000D3010008D3010008D3010008D3010008E0
:1000B000D3010008D3010008D301000800F002F8C2
:1000C00000F06FF812A030C8083824182D18AC4280
:1000D00001D100F066F80FCCA246AB460CA730CF9A
:1000E0002D1B083F3F197C427F1E54442D090426D6
:1000F000F441641EAC4201D300F053F801263342B0
:1001000000D0FB1A3343984754465D46DFE70000B2
:10011000C0650000E0650000103A02D378C878C1DD
:10012000FAD8520701D330C830C101D504680C6039
:1001300070470000704700000023002400250026BF
:10014000103A01D378C1FBD8520700D330C100D593
:100150000B60704710B5662902D106F075F910BD25
:10016000642902D100F096F810BD002010BD1FB523
:100170000098019902F0D1F901F028FB0400002059
:10018000002106F04BF9401C60600020002106F0C1
:100190002FF9E06001F024FF1FBD10B501F08CFFC6
:1001A00010BD01F0BBFF1146FFF7E1FF05F090FB2A
:1001B00002F0FCF803B4FFF7F0FF03BC02F000FB11
:1001C0000748804707480047FEE7FEE7FEE7FEE7EF
:1001D000FEE7FEE704480549054A064B7047000064
:1001E00039510008BD000008F0030020F00900208C
:1001F000F0050020F005002010B5202A06DB084697
:10020000CB17203A1041C1170B4306E00B462024C0
:100210001341D040A21A91400843194610BD4343F0
:10022000514330B55C18010C130C0D4692B25D437E
:1002300080B251432C19054655430A0C09044D1947
:1002400062415843010C00044019514130BD000087
:100250000FB4054910B503AA029801F0CBF910BC00
:1002600008BC04B0184700007C0000200FB41CB587
:10027000074B06AA7B4469460090059801F0A1F956
:100280000020694601F0B0F91CBC08BC04B0184756
:1002900071130000F7B5002575291068009914A6A0
:1002A00011D0C046C046002802DA404211A608E03C
:1002B000009909688A0701D50FA602E0490704D50D
:1002C0000EA6012501E0C046C046009F0024243749
:1002D00004E001F0DBF930313955641C0028F8D115
:1002E0002B4632462146009800F003FFFEBD000079
:1002F000000000002D0000002B0000002000000086
:10030000F3B50446002081B020622046E1688847AA
:1003100000287AD0252802D06268A16871E0E168DF
:1003200020460025884706460020E0610746A06178
:100330002A2E0AD0304606F02FF8002827D0B80021
:100340000019303E0090866119E00298BA00121937
:1003500002C8916102902046E1688847012F064655
:1003600017D1E06900281FDA202085431CE000989F
:100370000A218069484300998019303888612046F5
:10038000E1688847064606F007F80028EFD1012FFC
:100390000AD02E2E08D12046E16888470646202044
:1003A00005437F1C022FC3DBA069002803DA40420B
:1003B000A06101200543E80701D010208543002EED
:1003C00023D030464138192803D80120C002054304
:1003D0002036204625603146029A1546FFF7BAFEC0
:1003E00000280BD0012806D0ED1DE808C000083019
:1003F00002908AE709E02D1D029586E76268304683
:10040000A1689047206A401C7EE7206AFEBD70B557
:10041000064600F05FFE0468054630460A220021C9
:1004200001F0FCF82C6070BD10B5044603E005F047
:100430003FFA401C08D020780549641C0028F6D1FA
:100440000A2005F035FA10BD0020C04310BD0000A1
:100450007C00002030B5441C03E00178401C0029DA
:100460000DD08107F9D10B4BDD0104C8D11A91439E
:100470002940FAD0001B0A0603D0C01E30BD001B65
:1004800030BD0A0401D0801E30BD0902FCD0401EE0
:1004900030BD00000101010101E004C0091F042971
:1004A000FBD28B0701D50280801CC90700D00270E7
:1004B000704700290BD0C30702D00270401C491EB0
:1004C000022904D3830702D50280801C891EE3E73A
:1004D0000022EEE70022DFE7002203098B4273D3FC
:1004E000030A8B4258D3030B8B423CD3030C8B4241
:1004F00021D312E003460B437FD4002243088B42F2
:1005000074D303098B425FD3030A8B4244D3030B9A
:100510008B4228D3030C8B420DD30902FF2212BA5F
:10052000030C8B4202D31212090265D0030B8B42DB
:1005300019D300E0090AC30B8B4201D3CB03C01AC5
:100540005241830B8B4201D38B03C01A5241430BA0
:100550008B4201D34B03C01A5241030B8B4201D390
:100560000B03C01A5241C30A8B4201D3CB02C01AFB
:100570005241830A8B4201D38B02C01A5241430A73
:100580008B4201D34B02C01A5241030A8B4201D362
:100590000B02C01A5241CDD2C3098B4201D3CB0109
:1005A000C01A524183098B4201D38B01C01A5241B8
:1005B00043098B4201D34B01C01A524103098B42BC
:1005C00001D30B01C01A5241C3088B4201D3CB00A7
:1005D000C01A524183088B4201D38B00C01A52418A
:1005E00043088B4201D34B00C01A5241411A00D23A
:1005F00001465241104670475DE0CA0F00D04942A3
:10060000031000D3404253409C46002203098B4212
:100610002DD3030A8B4212D38901FC2212BA030A9A
:100620008B420CD3890192118B4208D3890192111C
:100630008B4204D389013AD0921100E08909C309A1
:100640008B4201D3CB01C01A524183098B4201D3A3
:100650008B01C01A524143098B4201D34B01C01A8E
:10066000524103098B4201D30B01C01A5241C30806
:100670008B4201D3CB00C01A524183088B4201D375
:100680008B00C01A5241D9D243088B4201D34B0090
:10069000C01A5241411A00D20146524110466346E7
:1006A0005B1001D34042002B00D54942704763469E
:1006B0005B1000D3404201B50449002802DC491C0C
:1006C000084000E00846C046C04602BDFFFFFF7F6D
:1006D00070477047704700000246C80FC00781434B
:1006E0004B0030B54B405B009B0D20D01923DB063F
:1006F000C91801231B05994220DB0324A407042504
:100700001346AB400BD3002B04D1EB0613409B00E8
:10071000E34204D401246407002312195941FF2342
:100720001B0599420BD2C9000143500F09E0CB02CF
:1007300004D501430803024305D0054830BDFF211D
:10074000C905084330BD084607210905884330BD67
:100750000000C07FF0B5F94D0C091E092C402E4059
:100760002F468BB0A7437DD0B543FCD0002E7AD066
:10077000002CFCD00D465D40ED0F2543AC1BFF2542
:10078000AD0464190894C502440DC9022143500DFB
:10079000DC0204430120C00701430443D20201915B
:1007A000200C110C00958C46010423468B430A91C2
:1007B00061460904E24D8A430991010A7D444919C1
:1007C0008039097805464D4301266D18F605751BDD
:1007D0006943C90C640B891C4C436418B5012C1B7C
:1007E000250C2E04B4434C434D43210C6918890950
:1007F0000591009DE90701D00121C90704912C460C
:1008000001996708CD072F434C08059DE10B4D4327
:100810002D0C29466646754302950D4645432E46E6
:10082000029D7D1BB44100950D465D4301942C0C47
:100830002F040D465543AE462D0C3D4302950394BF
:100840007546049C2D04641B049406D2029C039DEF
:10085000641C002675410395029401AC70CC009F86
:100860007D1B01E03EE162E1B4410904009507917E
:1008700001940599A4086143090C0C464443650B97
:10088000E7040C4666467443A646640B3C43039556
:1008900002947446049DE4042C1B049406D2029C2A
:1008A000039D641C002675410395029401AC70CC35
:1008B000009F7D1BB44101940C465C430095650F7D
:1008C000E7000C465443A646640F3C43039502944C
:1008D0007446049DE4002C1B049406D2029C039DE4
:1008E000641C002675410395029401AC70CC009FF6
:1008F0007D1BB441AE09AF06049DC900AD092F436D
:10090000049DA406AD060495079D3443691807911C
:10091000059DE10B4D432D0C294666467543029516
:100920000D4645432E46029D7D1BB44100950D4664
:100930005D4301942C0C2F040D465543AE462D0CFF
:100940003D43029503947546049C2D04641B049456
:1009500006D2029C039D641C0026754103950294F7
:1009600001AC70CC009F7D1BB44101948C050694B2
:10097000079C890A611800950791019C0599A408B4
:100980006143090C0D464543680BEF040D46644670
:1009900065436C0B3C43049FED047D1BAC4602D2C7
:1009A0000025641C6841009E019D371B8541084657
:1009B000584301950C46460FC5005443600F284329
:1009C0006546E4002C1B02D20025401C6E41019DAF
:1009D0003F1AB5412846BD09800628438446A00930
:1009E000BF064E020699A40676180743079D00200D
:1009F00068410A99079019430020099B00906046BE
:100A0000FF1913434041E20F64003A43A4460446F1
:100A1000D71A8C41A04203D90120009020463A46C3
:100A2000C70F941840416246D20F224364466400C7
:100A30000494009CBE466400D71AA446044602975C
:100A40008C417746002F01D1A04204D96046401C5A
:100A50008446029A2046C40FA64694184041049A40
:100A60000546D20F224364466400D31A8D41714675
:100A7000002901D1A84202D928461A46641C104315
:100A80000122002800D0164361020020079B89192B
:100A900004465C410223002C02DB491813466441E2
:100AA000089DCE0A2D145D194B056705E10A2C053A
:100AB0000D1908993E43C9076940002B08D093409F
:100AC00006D30022761C5141002B01D17608760016
:100AD0001C4A002D43DB154241D0AA433FD030468B
:100AE0000BB0F0BD06180D464D41174C7642AC4197
:100AF0001AD395181C465C41134A6D42A24113D388
:100B0000012252054C00D4420AD15C00D4420BD0E1
:100B10004B4002D592021143E2E749004908DFE762
:100B20005940C90FC90718E000200849D8E705480F
:100B300001420DD10342F7D0F2E700000000FF07A9
:100B4000985C00000000F07F0000E0FF0000F87FEC
:100B5000114859400143C01241400020C0E7012321
:100B6000089A9B069A4205DC032252078918C90F8E
:100B7000C907B5E7052252078918074A1143D2125F
:100B80005140ADE770B515461C4602460B46284657
:100B90002146FFF7DFFD70BDFFFFFF7F1F22030C23
:100BA00002D10F22000402D0030E03D004E0002083
:100BB000014670470002083A030F01D10001121FDD
:100BC000830F01D18000921E002801DB4000521EDD
:100BD000120551184205C012411810467047C10F46
:100BE000C90700D04042012292071143D6E70121F4
:100BF0008907D3E710B50B1E01D0202301E0011EA9
:100C00002BD00C0C01D10904103B0C0E01D10902B0
:100C1000083B0C0F01D109011B1F8C0F01D189006A
:100C20009B1E002901DB49005B1E0446DC4021437A
:100C30001C05A4182022D21A90404B05C20AC90AEA
:100C40001A430919830501D1430818401623984017
:100C500002D30020521C4141104610BDCA0FD207DA
:100C600003D00B46002140429941024B1A43C1E791
:100C7000004ABFE70000D041F0B58B4C0F09254674
:100C800089B0BD437BD01D092646AE43FAD00E463F
:100C90005E402740F60F3E43254071D0240121429B
:100CA000FBD0FF24AD19A4042D1B039501252D05B0
:100CB000DB02DB0AC9022B43C90A29431E010901D1
:100CC000040F130F050121431701880B8203914381
:100CD0002D098C46A90B1E438A039543B30B9A0337
:100CE00096433F09BA0B9403A74302962E467E43D0
:100CF0000497B6464E19D7190C46019654430597EA
:100D00007E43371B7646BF1B3601B646BE0B3619EF
:100D100000967646BC043719009C01D3641C0094ED
:100D20006400002F01D001263443029E049F7543C6
:100D300066467E430496760034196E00341900949A
:100D4000029C019E1C196643751BAE4606946546BF
:100D50004519059C05956C43594375460891691AD8
:100D60000191049E01465143A41B0491611A009C09
:100D70000791E10605D061090122114302E072E00A
:100D80006EE06109089D00272C0A2D066918049D54
:100D90007C412A0A2D066918019D6241AC0DAD0205
:100DA0006D185441079A910D920255196141029AAA
:100DB000644658435443069B059A5A43121A131B20
:100DC0009A0E9B015B187A41010B0005C318514133
:100DD000220A200644195A419A4200D2491C012095
:100DE0004002814203D315230226F64302E0142376
:100DF0000326F6432020C51AA9401746AF40DA4023
:100E00000A4320460399D84009147318190551184C
:100E1000039A3843D2075140AC4009D00122944094
:100E200006D30022401C5141002C01D14008400053
:100E30001E4A934212D3012203989206904207DB86
:100E40000520400709181A480143C012414004E038
:100E5000032040070818C10FC907002009B0F0BDE2
:100E60000020F107FAE705180C464C4111486D4285
:100E7000A04115D394181A465A410E486442904135
:100E80000ED301204A004005824209D35A00824213
:100E900006D35940C90F084AC90700201143DDE7AE
:100EA00000200649DAE700000000FF07FE07000007
:100EB000FFFFFF7F0000E0FF0000F07F0000F87FF1
:100EC0000121C9050123411842001B06D3185B0EFE
:100ED0000AD0C1100722D206891840075242D142D7
:100EE00001D5520089187047090208D50146002A29
:100EF00003D0C10FC9070020704710467047420257
:100F000002D0002002497047072109050143F4E798
:100F10000000F87FF0B5FF252D04C609C209FF27A0
:100F200004462E400137CB093E4348402A402B401F
:100F30000746002A6BD0002B69D0AA4267D0AB428B
:100F400065D0002800DA32460125ED0529432C43FF
:100F500009022002090AD21A4B0C7F24E31A434CDF
:100F6000000A7C44E35C7D242404121914145B0001
:100F7000A218884201D3521C00E0400049420C46AE
:100F80005C4324115C43DB016415E318040A5C43F1
:100F9000C502200D0C4644436419250A5D43230312
:100FA000EC0C0D46654300030019EB184C42A342BC
:100FB00001D35B18401CD4052018002B07D05B0020
:100FC000C91804D3401C002901D1400840003F212A
:100FD00089048A4209D3002A08DC1106090F04D0CB
:100FE000032149074018C00FC007F0BD012241008E
:100FF000120689187F2252069142F6D2052149072E
:10100000C84201D59010F0BDFF20C005F0BD002FF3
:1010100000DA32461648AA4207D2AB4205D219027C
:10102000090E17D0F80FC007F0BDFF2563002D068D
:10103000AB42F9D84900A942F6D8AB4201D1A94246
:10104000F2D0A94201D1002101E061004908D00598
:101050000843F0BD1102090EFBD0FF200243D0056A
:10106000F0BD0A460146104654E7000072550000E4
:101070000000C07F1F22030C02D10F2200041CD0ED
:10108000030E01D10002083A030F01D10001121F23
:10109000830F01D18000921E002801DB4000521E08
:1010A000D2055118021251181922904004D3491C3C
:1010B000002801D14908490008467047C10FC907F7
:1010C00000D04042012292071143D3E70121890752
:1010D000D0E70000004870472401002010B5FFF75A
:1010E000F9FF006810BD10B50446FFF7F3FF046078
:1010F00010BDFFB504460D4681B024300090216834
:10110000880604D51022E0699143216000E00120A7
:10111000A84201DD471B00E000270498A1697A1965
:101120001018081AA0612078C00602D42046C046D4
:10113000C046002608E003986268A168805D904779
:10114000206A401C761C206204988642F3DB2078DB
:10115000C0060AD52046C046C04606E06268A168BF
:1011600030209047206A401C206238467F1E0028AD
:10117000F4DC07E000986268A168405D9047206A4F
:10118000401C206228466D1E0028F3DC2046C04625
:10119000C0462078000602D5022005B0F0BD01202F
:1011A000FBE70000FFB50C461E468FB003CA08904F
:1011B00009914F007D0D00D16D1E002108460020D1
:1011C000C0460321099A89050840002A03DA8200F3
:1011D000801840080840800D01280A9002DD002098
:1011E000C0430A90089807430DD0F048F0492818EA
:1011F00048430714189800281DD07542291E1DDD8C
:101200000A9842421BE01898012802D000203021A1
:1012100004E00020F24305E02154401CB042FBDB17
:1012200030460022189B002121540F998B600A60E0
:10123000486013B0F0BDBD1B6D1CDFE70A9A0029A2
:1012400000DA69420BA800F09BFB0BAB07CB03ABAA
:1012500007C30899099800F0FFFB6B4607C30146D6
:10126000D4480918002D00910BDDD24903980A9A41
:1012700049424018002303A90390684600F05CFE31
:1012800008E003990A9A0023081803A90390684606
:1012900000F0FCFD6B4607C30004000C03D00020E7
:1012A000C043410800E01046189A002A03D00022EB
:1012B000009215461EE0751E05D400F08BFA303200
:1012C00062556D1EF9D501220843079602D000220F
:1012D0007F1C04E02078302801D100227F1E002AE4
:1012E000069787D01EE0112D07DA00F073FA30322E
:1012F00062556D1C02460A43F5D1084303D000989D
:10130000002819D00EE00021681E05E0235C625C15
:1013100063542254401E491C8142F7DBA81B401E27
:1013200007950690079A18990020A0540F98079BDC
:10133000069A81600CC07CE711260020189059E7BE
:10134000D21DF0B50D460446D10893B0C90003C9BB
:101350000C900D9105F00AF802460D98C00F01D0CF
:101360002D2007E02068810701D52B2002E04007EF
:10137000C00F4001032A0F9001D0072A05DB034666
:101380002946204600F064FA0EE12078800601D557
:10139000E76900E006272846652D04D0662814D0AA
:1013A000672D69D12DE00020112F009001DB112362
:1013B00000E07B1C0CAA03A910A8FFF7F3FE11990B
:1013C000002610987D1C0E9142E001203B460CAA9D
:1013D000C0070B900120009003A910A8FFF7E2FEC0
:1013E000119D12981099002600280E9501D1781CA5
:1013F0000D18781B02D446427D1C761EE81B009017
:101400003AE0012F00DA01270020112F009001DDC2
:10141000112300E03B460CAA03A910A8FFF7C2FE67
:1014200011993D46109800260E91217809070BD49A
:101430000E99A94200DA0D4603A9012D04DD4A19CF
:10144000203AD27F302A06D0B84201DA011D04DAF0
:10145000012100910FE06D1EEFE7002802DC8619E4
:101460002D1A03E0411CA94200DD0D46801B401CE3
:1014700000900120C0070B902078000705D4009849
:10148000A84202DB0020C043009069460020C872D9
:101490000B98012102AF0337C907884225D00220EB
:1014A00010902B2011900B9800280BDA40420B90E3
:1014B0002D20119006E00B9800F0E8F830317F1EE7
:1014C0000B9039701099481E00291090F3DC0B988E
:1014D0000028F0D111987F1E38702088000501D5B2
:1014E000452000E065207F1E387001A8C01BC01D8C
:1014F0000B900F98002800D0012041190098C017C8
:1015000009180B980818A169081A401EA0612078D4
:10151000C00602D42046C046C0460F98002805D019
:101520006268A1689047206A401C20622078C0064B
:1015300025D52046C046C04621E0002E07DB0E9888
:10154000B04204DD03A86268805DA16802E06268C1
:10155000A16830209047206A761C401C20620098C9
:10156000401E002800900AD100F030F9C06862687F
:101570000168405CA1689047206A401C20622846B0
:101580006D1E0028D9DC07E062683878A1687F1CEE
:101590009047206A401C20620B99481E00290B903E
:1015A000F2DC2046C046C046032042E601FCFFFFB5
:1015B000104D0000E1DFFFFF01694A1C026108785D
:1015C000704700B58FB00291002105910549019344
:1015D00079440391114604906846FEF791FE0FB0DE
:1015E00000BD0000E5FFFFFF0A681070521C0A6092
:1015F00070470000084B70B50D467B44FFF7E1FFD4
:101600000446284600F0E8FC002802D00020C04331
:1016100070BD204670BD0000B3420000F7B50F4614
:101620000026009C2578641C002D05D000F0C6F82B
:101630000068405DC007F5D12B2D02D02D2D18D0AC
:10164000641E3946029A204600F046F9002F04D065
:101650003968A14201D1009939607105022400293D
:101660000BDA4042002803DDFFF734FD0460A007D9
:10167000FEBD012080020643E3E70028F8DAFFF709
:1016800029FD04600048FEBDFFFFFF7F0146800882
:10169000081A02091018020A1018020C1018C008C3
:1016A000820012185200891A01E0401C0A390A29E6
:1016B000FBD27047F0B53D4B02460C461C40002063
:1016C000002C63D03A4D8B4366D000296BDB0B0DA9
:1016D0001D05A94301252D0529430124FD33E340C0
:1016E00001D392184941FF3381339C468B02940DFC
:1016F0000121234389074C42920200271B198C10B9
:101700005D1A04D42D1B02D42B466500491992188A
:101710005B416408F4D15C1A08D40125ED07EE178B
:101720005519744102D42A462346491C94185B413A
:10173000012292071D46E61B8D4106D4B61A85414B
:1017400003D42B46550034467F1924195B415208B7
:10175000802AEFD1234300D0022338460A22D0400A
:1017600001D3012213438A0510436246890A1205F8
:101770008918002B09D00122D34002D30022401C3B
:101780005141002B01D140084000F0BD0B03134331
:1017900007D0C90FC907F0BD0803104303D10029C2
:1017A00001DB1046F0BD00202946F0BD0000F07FAF
:1017B0000000F87F004870472401002010B500F0B9
:1017C00005F8001D10BD00BF554C000000487047D3
:1017D000440100200B4670B5024689078008084383
:1017E00019469D08141AA941250908070543080947
:1017F0002C194841250A01060D43010A2C194141C3
:10180000200C0D0428430D0C00194D4100214019F6
:101810004D41C00869070843E908840F8D0025433E
:10182000840024184D4124196D41121BAB4107E07F
:101830000925ED432C11521963410024401C6141DC
:101840001C460A250026551BB441F1D270BD00008C
:10185000F8B51F46044601230068DB020326014653
:101860001840072A05DB002801D017A506E017A5B8
:1018700004E0002801D016A500E016A51020814341
:101880002160A069C01E002FA06101D0401EA06190
:101890002046C046C046002F09D038466268A1687D
:1018A0009047206A401C2062C01C206206E0206A2B
:1018B000FAE762682878A1686D1C9047761EF8D216
:1018C0002046C046C046F8BD4E414E006E616E00D7
:1018D000494E4600696E6600F7B5154682B000278E
:1018E000029C2078641C0197302802D0002D15D06E
:1018F00015E020780127641C782804D0582802D0ED
:10190000002D09D00BE0002D01D0102D07D120783B
:1019100000271025641C02E0082500E00A250026A7
:10192000009610E000990127694308182946714381
:10193000020C80B200908E183804864201D3012038
:1019400001902078641C294600F05EFC0028E9DA4A
:101950000398002805D0002F01D0641E00E0029CEF
:1019600004600198002806D0FFF7B4FB0221016053
:10197000C81E05B0F0BD009930040843F9E7000027
:10198000F7B516468AB0334878446C4603467C3334
:10199000C06F5A689B680DC42E487844763003ACFB
:1019A0000DC80DC43720C001081837211B30FEF7C1
:1019B000A1FD05460C46803D1B3C02D5644201203A
:1019C00000E000200027099010E0E0070CD00C2078
:1019D00020497843794432464C39411868460123FE
:1019E00000F054FA6B4607C364107F1C002CECD146
:1019F000184F7F442E3F16E0E80712D02001C0198F
:101A00000EC80691089307920068F04201D1981918
:101A100008903246012306A903A800F037FA03AB69
:101A200007C36D10641C002DE6D10998002806D06C
:101A300032466946012303A800F07EFA05E001233F
:101A40003246694603A800F021FA0A9B07C30DB08D
:101A5000F0BD00008C4B0000034640000A4610B564
:101A6000400D0BD00121C9070F24A40200191C034B
:101A700064082143540D2143D20207E000210120D4
:101A8000F2E7D40F490021435200401E0029F8DA42
:101A9000DB0FDB07184310BDFFB50D46144685B0BC
:101AA0004868516804F049FC00910190A868A16859
:101AB00004F043FC02910390A868616804F03DFCC7
:101AC000029A12188242029201D2012000E0002004
:101AD000019A0B18D2180028019202D08A4202D92A
:101AE00003E08A4201D2012000E00020009908189A
:101AF00000906868A16804F020FC029A12188242E3
:101B0000029201D2012000E00020019A0B18D218A5
:101B10000028019202D08A4202D903E08A4201D20F
:101B2000012000E000200099081800902868216832
:101B300040004900400849084018FA49471814E095
:101B400001994000C90F0843009001980299400094
:101B5000C90F08430190029803994000C90F084338
:101B60000290039840007F1E039000980028E7DA57
:101B70000898002801D0EC4E00E00026B74201DAB8
:101B8000012000E00020002804902AD0F71BF8066E
:101B9000C00E15D0029B2021091A039A8B401A43CC
:101BA0000392029A019BC2408B401A430292019A0F
:101BB000009BC2408B4000991A430192C1400091A2
:101BC0007B110DD06F460320C11A03D5002182007E
:101BD000B95003E08A008100BA587A50401EF3D50C
:101BE000374603980299002800D001200143089845
:101BF0000291002808460CD0002800D0012001994D
:101C0000019A490508430121D20AC902D202019270
:101C100000E001210E9B0122D207012B02D0002BF4
:101C200003D013E0002807D120E0904204D890426E
:101C30000CD1019B0B4209D0019B5918019105D190
:101C40000099491C009101D17F1C009200280DD001
:101C5000102108460020C0460498002806D00F989E
:101C6000002803D0082108460020C04628682168C3
:101C7000019B009A4840C10F0598C90739430EC01F
:101C800009B0F0BDFFB587B0099A08980899536864
:101C900092684068896896460022039317469446E6
:101CA000089A12685300099A5B0812685200520899
:101CB0009A1A9E4BD4180A9A002A01D0352200E0C5
:101CC000402206920022012315460492DB07059369
:101CD00024E0002D05D175460346039E4D1BB341FC
:101CE00009D375466646039B491B049D9841059B95
:101CF0007519AC465F4163463B4308D0059B049E83
:101D0000DD0776082E435B080496059301E0521E1A
:101D1000641EC50FED0749184041521C069B9A42AC
:101D2000D7DB002D04D17546039A6B1A824101D28C
:101D300003200CE0039A0B466B404240134303D050
:101D4000014303D0012002E0022000E000206146B0
:101D500001910021009702910A99002905D061465E
:101D600040020143704B019102E080070023029082
:101D70009C4201DA012000E0002007003AD01A1B43
:101D8000D006C00E15D0029D2021019C091AC54025
:101D90008C402543029C8C4000D001242543019CAB
:101DA0000295009DC4408D4000992C430194C14090
:101DB000009154111DD06D460221002202290CD140
:101DC0000320001B07E0002804DB8600AE59002E2C
:101DD00000D00122401C0328F5DB081B02D5880037
:101DE0002A5004E08000285810438A00A850491E59
:101DF000E3D51C460A98002802980CD0002800D091
:101E000001200199019A490508430121D20AC9021A
:101E1000D202019200E00121109B0122D207012B86
:101E200002D0002B03D013E0002807D11FE090421E
:101E300004D890420CD1019B0B4209D0019B591848
:101E4000019105D10099491C009101D1641C0092B7
:101E500000280CD0102108460020C046002F06D0D4
:101E60001198002803D0082108460020C046089891
:101E70000999019A009B006809684840C10F0798BA
:101E8000C907214382600AC00BB0F0BD00B585B020
:101E9000019300920A460146002302A8FFF7FCFDC9
:101EA00002A807C805B000BDFFB50A461F4685B0A9
:101EB0000799019301230091014602A8FFF7ECFD69
:101EC00002990398049ECA0F4900D20700920F227C
:101ED000490892028C1A0021002800DB0C464500BC
:101EE00013486D08844214D3079A002A04DA441E6A
:101EF0000026104DF64302E004460D460E46102122
:101F000008460020C046002F03D0042108460020C8
:101F1000C0462005E90A0843009908436905F20A0A
:101F20001143ADE602C0FFFF013C0000FF3F00008F
:101F3000FF070000FFFFFF7F00B585B0019300920F
:101F40000A460146002302A8FFF79CFE02A807C824
:101F5000A8E7FFB50A461F4685B0079901930123FC
:101F60000091014602A8FFF78DFE02990398049E96
:101F7000CA0F4900D20700920F22490892028C1A18
:101F80000021002800DB0C46450011486D08844202
:101F900014D3079A002A04DA441E00260D4DF64396
:101FA00002E004460D460E46102108460020C046B9
:101FB000002F03D0042108460020C0462005E90A6E
:101FC0000843009908436905F20A114358E60000E6
:101FD000FF070000FFFFFF7FC068802108407047B7
:101FE00010B543485421FEF775FA42485421FEF7D4
:101FF00071FA41485421FEF76DFA40483C493D4B87
:10200000404A01603E4803603B4810605A1C0A6524
:10201000411C1965012101653C48354A3AA17844C3
:1020200000F028F9002804D1384878440C3800F032
:10203000C5F938482F4A36A1784400F01BF900282A
:1020400004D1344878440C3800F0B8F932482A4AB0
:102050002FA1784400F00EF9002804D12E487844CE
:102060000C3800F0ABF940232148DC000021224667
:1020700000F0DAF8002804D0244878445C3800F0F6
:102080009DF91C4822464023002100F0CDF800288D
:1020900004D0204878445C3800F090F91648224675
:1020A0001023002100F0C0F8002804D01A4878441A
:1020B0005C3800F083F910BD0F4870B5006D44081E
:1020C0000B48640000F04EF90A4800F04BF90A484A
:1020D00000F048F909E0206D450820466D0000F049
:1020E00041F9204600F06AF82C46002CF3D170BD6F
:1020F000280000207C000020D000002000000020EC
:102100000400002008000020720000008A45000042
:1021100077000000744500005E4500007546FFF73B
:1021200049FBAE46050069465346C008C0008546D7
:1021300018B020B5FEF74EF860BCB6460026002762
:10214000C0C5C0C5C0C5C0C5C0C5C0C5C0C5C0C567
:10215000403D490849008D46704770B5064600F07D
:10216000BFF9056830460B30C408E400B44201D81A
:10217000002070BD68682A46002818D00168A14276
:1021800011D30B46214608318B4208D3436801190D
:102190004B6003681B1B0B605160046001E04168E9
:1021A0005160001D70BD024640680028E6D12146FE
:1021B000284600F09DF90028DCD170BD70B50446BA
:1021C000051F00F08DF90068002C1AD0446801E06A
:1021D00020466468002C01D0AC42F9D301680A188B
:1021E000AA4204D12A6805468918016000E04560CA
:1021F00028684119A14205D16168696021684018C9
:10220000286070BD6C6070BD3A2800D23038202341
:1022100002469A43412A01D310463738884201D3F7
:102220000020C0437047000070B5C468A50713D0F4
:10223000650211D4D51FF93D0AD0FF3D6D1E07D0B0
:10224000FF3DFF3D022D07D101462431012305E06A
:10225000074E5D1EB54201D3012070BD0161C3610F
:1022600041600F2109028C431443C460002070BDFB
:10227000FFFFFF00F7B516460C460098002843D034
:10228000104600F06FF82078611C61280AD072288F
:1022900002D0772839D102E00125002404E002258C
:1022A000042401E02D4D082402220323012708788D
:1022B000491C2B2806D0622807D02039C87F7428F3
:1022C00007D008E01D431443F1E7042005433C43D5
:1022D000EDE7102004430098214600F0CDF8411CA2
:1022E00013D00021316171600121F5604902F16173
:1022F0007061200704D530460222002100F040F929
:10230000306D384330653046FEBD0020FEBDF8B567
:102310000D460646124C206DC10704D0410804D07A
:1023200044086400F7E7224610E05420FFF715FF49
:10233000070010D07908206D49000122114308439D
:10234000542120653846FEF7C5F83A4629463046FE
:10235000FFF790FFF8BD0020F8BD000002800000EC
:1023600028000020F8B5044600264769006900905F
:10237000E568A80717D0204600F0B7F9384600F006
:1023800085F8002800DA761E280502D50098FFF7A8
:1023900015FF4C212046FEF79DF8206D40084000B7
:1023A00020653046F8BD0020C043F8BD10B5044696
:1023B000C046C0462046FDF7FDFE10BD10B500F03A
:1023C000E5F900F0DDF910BD82078B079A423FD195
:1023D00070B5920F0AD0032402780B78401C491C78
:1023E000002A33D09A4231D12042F5D1214EF40156
:1023F00004C808C9951B9543254018D19A420FD1AE
:1024000004C808C9951B9543254010D19A4207D1AD
:1024100004C808C9951B9543254008D19A42E7D0C6
:1024200012BA1BBA01209A4200D2404270BD12BAC1
:102430001BBA2DBA18241000E0401900E140401AE0
:1024400005D12E00E64002D1083CF4D1D01A70BD6F
:1024500002780B78401C491C002A09D09A4207D107
:1024600002780B78401C491C002A01D09A42EFD018
:10247000D01A7047010101010EB501910090FDF7DE
:10248000E9FF029069460120ABBE0EBD08B5694662
:1024900000900220ABBE08BD1FB56B4607C369465E
:1024A0000520ABBE04B010BD1FB56C460FC4694615
:1024B0000620ABBEF6E708B5694600900920ABBE22
:1024C00008BD1CB500900A2001916946ABBE1CBD39
:1024D000704708B5694600900C20ABBE08BD0000EF
:1024E000004870472C0100207047704770477047C4
:1024F00038B504460A4600206946C046C046002852
:1025000005D002462046009900F061F9012038BD4F
:1025100010B5012000F0B0F910BDF8B5C046C046B6
:10252000054600200C460C20C0460646A819A042CD
:102530000DD9324669460020C046C046070001D189
:1025400000F09AF90098A04200D00546C419FFF7A0
:10255000C7FFF61D07460560F008C000461928466B
:1025600000F008F8B44204D031463868A21B00F0ED
:102570002EF9F8BD00210160416070470C207047C2
:10258000F8B5044616460D464769007B800730D0F3
:102590003846FFF790FF00282BD132461026002A3C
:1025A00025D0012A02D0022A23D104E0204600F0DF
:1025B00028F945191BE03846FFF78BFFE1683143E6
:1025C0000028E16004DA204600F054F80120F8BD4C
:1025D000C9030BD56268E16A914200D81146A2692D
:1025E00089182269891A814200DD08462D18002DBC
:1025F00001DA0220F8BDE16A6068E268814206D231
:102600009103E06203D5012149048A433243A6695C
:10261000AE4211DCE16A814201D90B4600E003467B
:102620009F192369FF1AAF4206DD814201D90F4687
:1026300000E007469F4206D1202002430020A06010
:10264000A56220600DE0AD1BE669AE1B8142A6606D
:1026500000D90846C01A281A206058196060202046
:102660008243034802400020E26040342072F8BDFB
:10267000BFCFD7FFC1688022114392039143C1604D
:102680000021816001607047F7B515460C4682B0A5
:10269000506900903748D768074209D0A969009867
:1026A000FFF70FFF002815DB3248C0430740EF60FB
:1026B000314EB44200D826463B4632460299009835
:1026C000FFF7EAFE4200A9695208B21A89180028E9
:1026D000A96106D02846FFF7CDFF0020C04305B012
:1026E000F0BDA41BE4D10020F9E770B504460569EC
:1026F000C06A6168884200D80846E1680522D204B1
:102700009143E160C90314D5A84209D02246411B78
:102710002846FFF7B9FF002802D00020C04370BD53
:10272000E56200206560A060E0680121090488433B
:10273000E060002070BD10B50446C06820218843C9
:10274000E060A16AA06988420ED02046FFF7CDFF65
:10275000E06803210903884310210843E060A06A70
:10276000A0612069E06260600449E0680840E060C0
:1027700010BD000010000200FFFFFF7FBFBFFFFF82
:1027800010B5002801D000F01BF810BD10B50146AF
:1027900002A000F057F8012010BD00005349475235
:1027A000545245443A2052656469726563743A2014
:1027B00063616E2774206F70656E3A200000000020
:1027C00001491820ABBEFEE726000200704710B595
:1027D0000346406801E003464068002801D0884273
:1027E000F9D31868C3188B4206D0CB1CD808C00098
:1027F000001D411A521A0146081D0A60FFF7DEFC4F
:1028000010BD10B50146C268900703D0900607D5E9
:10281000886A0AE0FEF75EFC01210160881E10BD97
:102820008B694868C0180B69C01A40310B7A002BBD
:1028300002D0497A401A10BD1103FCD50028FADDF8
:10284000401E10BD70B505460C460A2000E06D1C08
:1028500000F018F8002D06D028780028F7D102E003
:10286000641C00F00FF8002C02D020780028F7D16B
:102870000A2000F007F870BD10B500F009F8FFF766
:102880007FFF10BD08B5694608700320ABBE08BDC8
:1028900010B5012805D0002103A0FFF7D3FF0120C8
:1028A00010BD09A1F8E7000053494752544D454D6A
:1028B0003A204F7574206F662068656170206D65E1
:1028C0006D6F7279000000003A2048656170206DDC
:1028D000656D6F727920636F7272757074656400D4
:1028E00070B582B005460024019400688168032217
:1028F0000A40012A05D10168C9070ED1C16809043F
:102900000BD48168214A11420AD0A86B10210143DF
:10291000A963E86B01242043E863204602B070BD40
:10292000816801220A43826091480068914903F05E
:1029300009FC01900198002817D00198401E0190D1
:102940000198002811D00198401E0190019800289C
:102950000BD00198401E01900198002805D00198E5
:10296000401E019001980028E7D100F095FC064632
:1029700028680068C007D0D100F08EFC811B286851
:102980000329F6D30168C907F3D1BEE71700008019
:10299000F0B581B0044600F07FFC0546264E306855
:1029A000C00715D13068800601D52020306030681E
:1029B000C00605D43068400702D4002001B0F0BD45
:1029C0003068C00616D40020316849071BD421E0C6
:1029D0000320002C20D0611C20D13068C007E1D03A
:1029E0003068C007DED03068C007DBD03068C00771
:1029F000F3D1D7E71148C16902220A43C26110200E
:102A00003168490706D50D49CA6901231343CB61D3
:102A1000042108433060012001B0F0BD074600F0FA
:102A20003BFC401BA04203D83068C007F7D1B9E790
:102A3000384601B0F0BDC0460C200240C80300205B
:102A4000F0B583B0002402943422825C012A02D1C2
:102A5000022003B0F0BD074634370668B26852075B
:102A600015D401970D684B6801270097AF403E4A87
:102A7000934214D1B06AB843B06228461038022895
:102A80002046019F08D8112D1BD03C481AE0816BCD
:102A900020220A43826301203C7003B0F0BDB26A79
:102AA0003A43B262C06A421E072A4AD22846103808
:102AB00002282046019FEFD8112D0ED0009908065C
:102AC0000DE02D48102D00D12D4828490A680240FC
:102AD0000A6020463C7003B0F0BD00998805102DB7
:102AE00000D1C80521490A6802430A60102D20461A
:102AF000D2D11F4800681F4903F024FB0A2141433B
:102B00000291029800282046C6D00298401E0290EA
:102B10000298002811D00298401E029002980028C6
:102B20000BD00298401E02900298002805D002980F
:102B3000401E029002980028E7D120463C7003B066
:102B4000F0BD009A12079042B0D07269072002408F
:102B500089689142AAD072698243726101407069AA
:102B600008437061A2E7C046011000000827014039
:102B70001400002040420F00FFFFBFFFFFFFFFFED9
:102B8000FFFF7FFF0068006C70470000F0B581B068
:102B90000124002862D006462436816B002903D028
:102BA000816BC9060AD555E000213174C163054621
:102BB00000F094F82846816BC9064BD401688A68F6
:102BC000520747D481225200836B93439A1C82633D
:102BD0008B6803221340012B05D10B68DB070ED154
:102BE000CB681B040BD4CB681824A34384681C4314
:102BF000CC6092070B69934342681A430A61CA6822
:102C0000344B1340CB60826A521E531E9A4112030A
:102C1000037E9B03447EE4031C43837E5D032543C4
:102C2000C46807692C431443BA1E55425541AD0090
:102C30002543327852002A43C47E012C14D1002B44
:102C40000FD0836B20241C438463C36B01241C437B
:102C5000C46309E0816B10220A438263204601B0FD
:102C6000F0BD01231B041A43C369FF24C234A342ED
:102C700002D0046A22431A43CB681343CB60C36A71
:102C80005C1E072C21D24C690725AC434C612B40BC
:102C90004C691C434C61C9680F4B0B40934207D1F0
:102CA0000024C463816B01220A4302218A43D4E7D2
:102CB000816B10220A4302218A438263C16B012483
:102CC0002143C163204601B0F0BD01242407A34283
:102CD000D9D0E0E71902FEFFE7FF3F8310B586B0C9
:102CE0000021059104910391029101910068114A1C
:102CF000904201D006B010BD012042020E4B5C682C
:102D000014435C605C6814400094009A40041A68A4
:102D100002431A601A680240009203910320029055
:102D200001900920C006009901A900F0DDF906B064
:102D300010BDC046002401401410024070B5016867
:102D40008A680221520713D43422825C012A0FD0F0
:102D50000546343501212970427E012A0AD00446F5
:102D60000E46FFF7BDFD024631462046002A01D03F
:102D7000084670BD816B094A0A40012109025118B9
:102D800081630021C16300681C220260297082688F
:102D9000042313438360084670BDC046FEF0FFFF66
:102DA000F0B583B00546C34E307E012802D1022023
:102DB00003B0F0BD00910120074630762C68BF4873
:102DC000FFF7E6FD012C06D1002838460AD0002185
:102DD000317603B0F0BD002819D038460021317695
:102DE00003B0F0BD0020F061294C20680425284381
:102DF00020602068402101432160B048FFF7C8FDF2
:102E00002168A94321600021317603B0F0BD002084
:102E10000290C143009801606C68A868C002001964
:102E200084423846D3D20195194F35460298F06155
:102E300038680226304338607C603868402101439E
:102E400039609E48FFF7A4FD3968B1433960002816
:102E50000FD10120C0022418019948688968C9026D
:102E6000081884422E46E0D302980021317603B040
:102E7000F0BD00990C602E460021317603B0F0BD04
:102E80000348016880220A43026000207047C04660
:102E900010200240F0B587B0864D2C7E012C03D166
:102EA0000224204607B0F0BD0592069104900393DA
:102EB00001242C7600F0F0F907467F4D2868C00702
:102EC00008D07E4E00F0E8F9C01BB0426DD82868EB
:102ED000C007F7D12868800601D52020286028681F
:102EE000C006744B4AD42868400747D4002002909B
:102EF000D8616868012738436860069805990180A1
:102F000000F0CAF904462868C00708D06B4E00F0EC
:102F1000C3F9001BB0422ED82868C007F7D1286833
:102F2000800601D5202028602868C0060498614BDF
:102F300000D5A4E02968490700D5A0E0696801220E
:102F4000914369600024012800D1AEE0DC6168682B
:102F50000192104368600598000C0699488000F0C3
:102F60009BF906462868C00722D000F095F9801B1F
:102F700052498842F6D903244E4B93E02868C00694
:102F800004D400202968490708D40CE0D86902213C
:102F90000143D96110202968490704D5D969214323
:102FA000D9610421084328607FE00324414B7CE081
:102FB00028688006039801D5202129602968C90660
:102FC00004993C4B5BD42A68520758D46A68019E26
:102FD000B2436A600222D243C91E914265D804916D
:102FE00005920024DC616968314369600699888034
:102FF00000F052F906462868C00706D000F04CF9E8
:10300000801B2E498842F6D9B5E72868800601D58D
:10301000202028602868C0060398264B2FD42968F2
:1030200049072CD46968019A914369600599049E07
:103030008E423AD80024DC61696811436960000C53
:103040000699C88000F028F906462868C00706D00F
:1030500000F022F9801B19498842F6D98BE72868CD
:10306000800601D5202028602868C006114B06D4B0
:103070002868400703D468680199884314E02868E9
:10308000C006029904D5D86902210143D9611021F3
:103090002868400704D5D8693843D8610420014323
:1030A00029603C466868B84368600020187620466E
:1030B00007B0F0BDC80300200C20024050C3000040
:1030C0000648C168090601D4002070470449016020
:1030D00004490160C068C0B2C009704704200240C2
:1030E00023016745AB89EFCDF0B58BB006900C6836
:1030F000002C00D1BDE06048069A824201D0052034
:1031000000E004201723DB06069AD2180A23DA41CE
:103110000192042A00D301900698203000900026E6
:1031200035463346099122460BE03C43089E146025
:103130005B1C0A681046D840361DAD1C002800D123
:1031400097E0012007469F403A40F1D0049008964E
:1031500003200446AC400295E54349680E4606400C
:10316000741E012C05920795039110D8069A906859
:103170002840099CE468029DAC4004439460C80662
:10318000C00F98405468BC430443546006E0032ECB
:10319000029D03D10646059F039C1FE0069AD06856
:1031A0000799084009998C68AC400443D460022E0A
:1031B000059F039C12D11C20089908400F218140D3
:1031C000DC08A400009A16598E43099F3969814092
:1031D000314311517C68059F03262640AE40069975
:1031E0000868079A104030430860A003800F0999CF
:1031F000089E049A9CD02249086810430860086819
:1032000010400A900C2030400F21814003241E46BC
:10321000A6430A9C1B4AB4588C4301998140214320
:10322000B1500999154A96684868C4020FD53E43C3
:103230009660D66884020FD4BE43D6605668840375
:103240000FD4BE4356601468C00310D56DE7BE436B
:103250009660D6688402EFD53E43D66056688403F4
:10326000EFD53E4356601468C00300D55DE7BC430C
:103270005CE70BB0F0BDC046001000480004014000
:103280001810024008000140002A02D01822815084
:103290007047282281507047E14800687047C04657
:1032A000B0B50246034640335C780220202C17D18B
:1032B0001C78012C14D02420587010680268012456
:1032C000A2430260220305689543056002680A4331
:1032D00002600168214301600020187020215970AC
:1032E000B0BDB0B50246034640335C780220202CC6
:1032F00017D11C78012C14D0242058701068026853
:103300000124A24302600F221202056895430902BC
:1033100029430160016821430160002018702021C9
:103320005970B0BDF0B581B0002822D005464035B7
:103330006978002905D100212970044600F034F98C
:1033400020462421697001680B68012293430B60B9
:103350000F231B0644689C430C618C681C4B1C406B
:103360008C608468C668012E06D1D60334438C6015
:103370000CE0012001B0F0BD2127BF023C438C606E
:10338000022E03D1D4024E68264302E0D4024E68D6
:10339000A6434E604C680F4E26434E60CC681C40DE
:1033A000CC60036944691C4383691B022343CB60DF
:1033B000C369046A1C430C600B6813430B60002153
:1033C000416420226A7001630846A97001B0F0BD13
:1033D000FF7FFFFF00800002F0B587B0054604467E
:1033E000403466780220202E00D0B8E02678012EE6
:1033F00000D1B4E00493039206910120059020705F
:10340000FFF74AFF074628688169090418D421217B
:1034100061701021A17000216964049A6A85039A81
:103420006A6202916963012105914E06698D090A5C
:10343000584A049621D0FF232B850126360620E02A
:103440000598C60302E081693142E0D0192128467F
:103450003A4601F019FA002876D1FFF71DFFC11B8B
:1034600028681A29EFD381693142ECD0686C202199
:1034700008436864617001207CE06B8D2B85002B14
:103480007DD0039A11788162698D491E6985511C2E
:10349000404A6962591E298506991140DBB21B0416
:1034A0005918314343683C4E33400B4301214903D3
:1034B000194341600C9E688D002848D00698104042
:1034C00006900499014304910EE0688D28852968CF
:1034D0004A68324B1A40C0B20004049B18431043A0
:1034E0004860688D002832D0284631463A4601F0BF
:1034F00096FD002828D12868696A0A788262688D5A
:10350000401E6885481C6862288D401E2885698D8C
:103510000029E6D00004E4D100978021002228464B
:10352000334601F0BCFC00280ED1688D000ACCD0D7
:10353000FF20288528684168184A1140069A1143DF
:10354000174A11434160CCE7059807B0F0BD284603
:1035500031463A4601F020FD0028059801D007B019
:10356000F0BD28682021C16142680E4B13404360C2
:103570006170029800212170A17007B0F0BD06991A
:1035800011404368044E33400B4304990B430599A3
:103590008DE7C046FF030000009800FC009C00FC83
:1035A0000000FF0100E800FEB0B586B000210591E3
:1035B00004910391029101910068124A904201D056
:1035C00006B0B0BD104C206801250595AA04104333
:1035D0002060206810400090039112200290032088
:1035E0000490000201900098084801A9FFF77CFDB3
:1035F0006805A1680143A160A1680140009100989D
:1036000006B0B0BD00540040141002400004004851
:103610001A48007802490A68101808607047C046C6
:10362000E803002010B5DE48016810220A4302605A
:103630000024204600F004F800F022F8204610BDD7
:1036400070B504467D20C0000C4E317802F07AFD42
:103650000146DB48006802F075FD00F02FFC0125F3
:10366000032C08D8002806D10025E84321462A4625
:1036700000F028F87460284670BDC0460C00002099
:1036800082B00948016801221143016001681140BC
:1036900001910199110742680A434260406808405D
:1036A0000090009802B0704718100240002805D41E
:1036B0001F21084001218140014801607047C04638
:1036C00000E100E0002805D40322034693430A4AA0
:1036D0009A1803E00C220240064BD2188007C00E55
:1036E0008901C9B28140FF23834010689843084391
:1036F0001060704714ED00E000E400E0F0B587B022
:1037000004468078C0074D4F4FD001200590010737
:103710003A1F10680840049006D1106808431060F2
:10372000106808400690069802920391444F38684A
:10373000C00512D405980602386830433860FFF798
:10374000ABFD05463868304207D1FFF7A5FD401BA9
:103750006428F7D9032007B0F0BD032001900002D0
:10376000364F3968014012D06268024091420ED053
:103770000598000439683A6802433A603A6882431F
:103780003A6008462F4A10403860C80746D138686A
:103790002C4908406168014339600498002804D12D
:1037A000029A10680399884310602168C8070AD1FB
:1037B000880710D4480317D488061ED40020490572
:1037C00024D407B0F0BD386903229043A2680243B5
:1037D0003A618807EED5032000043A698243E06825
:1037E000104338614803E7D5032080043A698243D7
:1037F0002069104338618806E0D53869102290436B
:10380000626902433A6100204905DAD539694022EC
:103810009143A2690A433A6107B0F0BDFFF73CFD4E
:103820000546604E38688007B1D4FFF735FD401B70
:10383000B042F7D9019807B0F0BDC0462010024051
:1038400000700040FFFCFFFFF0B581B0002842D0BF
:103850000D460446524B186801210840854208D99C
:103860001A68012082432A431A601A680240AA4259
:1038700051D120688207674E0CD5420704D5072234
:1038800012023368134333603268F0239A43A3680B
:1038900013433360C00721D1414A11680120014020
:1038A0008D4205D21168814311601168C90732D178
:1038B00021784907574F06D5072109023A688A43FC
:1038C000E168114339603B681907890F524A0229A0
:1038D00012D2144655E0012001B0F0BD6268032AFF
:1038E00014D0022A4B4B0BD0181F012A15D10068A7
:1038F000800308460FD514E003292CD1474C40E043
:10390000181F00688001084605D50AE0414B186B76
:103910008003084605D401B0F0BD00688007084662
:10392000F9D5186803210091884310431860FFF708
:10393000B3FC06461B4F374800680C210140606805
:1039400080008142A8D0FFF7A7FC801BB842F2D9C3
:10395000009801B0F0BD0321CD0399022B40090F5F
:103960002F4C645CB96A0F260E402E49895DAB422C
:1039700003D000048342104600E0284802F0E2FB36
:10398000444338680006000F0749085CC4400C48EF
:10399000046000242046FFF753FE204601B0F0BD2E
:1039A0000020024088130000B86500080448006841
:1039B000184909684905490F024A515CC8407047D7
:1039C00014000020C8650008B0B512490A68100745
:1039D000830F1148022B02D3032B01D10F48B0BD36
:1039E0000323DB0394021A40240F0D4D2C5D896ADA
:1039F0000F250D400B49495D9A4203D001231B045A
:103A00009A4200E0054802F09DFB014620464843EB
:103A1000B0BDC0460410024000127A00006CDC0207
:103A2000DC650008EC650008F0B587B004460120AD
:103A3000002C00D13CE204902078C007F64E05949B
:103A40000CD071680C200140042900D08FE0306850
:103A5000800303D56068002800D131E12078800719
:103A600021D570680007800F0ED070680C210140CE
:103A7000082900D098E00320C003716801400120AC
:103A8000C003814200D08FE030688007059C03D5D9
:103A9000E068012800D013E13068F82188432169EB
:103AA000C90001433160059C2078000724D42078A8
:103AB000400736D42078C00600D4CEE0706B05995C
:103AC00049694A1D00D1BDE0012900D03EE1042131
:103AD00008437063706B012101437163FFF7DCFBE6
:103AE0000546706B800700D5AFE0FFF7D5FB411BA3
:103AF00003200229F5D9DBE1706AE16900297ED053
:103B0000012108437062FFF7C7FB0546706A800712
:103B1000CDD4FFF7C1FB401B0228F7D9032007B023
:103B2000F0BD012003900107F0690840029006D122
:103B3000F0690843F061F069084006900698019129
:103B4000DC4F3868C00546D4039804023868204327
:103B50003860FFF7A1FB0546386820423BD1FFF7EC
:103B60009BFB401B6428F7D9032007B0F0BD7168A8
:103B70000140082908D10320C003716801400120D9
:103B80000004814200D162E76268306801214F047D
:103B9000002A00D129E1052A00D11FE1012A00D025
:103BA0003CE1090408433FE13068059CE1680029D5
:103BB00037D0012108433060FFF76EFB05463068BF
:103BC000800700D568E7FFF767FB401B0228F6D99E
:103BD000032007B0F0BD05988168306AB64F002910
:103BE00000D1DDE0052900D1C5E0012900D1C6E002
:103BF000039988433062306A04218843C1E001217F
:103C000088437062FFF748FB0546706A800700D45E
:103C10004DE7FFF741FB401B0228F6D9032007B010
:103C2000F0BD012188433060FFF736FB0546306860
:103C3000800700D437E7FFF72FFB411B0320022941
:103C4000F5D935E1042188437063706BF82188430E
:103C500005998969C9000143716305980078800658
:103C60000BD571680C2001400C294DD1706B80037D
:103C700003D50598006A012822D10598446A002CD2
:103C80001BD070680C21014008291CD1012C17D0D1
:103C90000320C20370680240F16A059CA36A9A423D
:103CA0000ED10F221140236B994209D19104084093
:103CB000E16A8842049800D0FAE0002007B0F0BD25
:103CC000049807B0F0BD01200206316804929143C8
:103CD00031604706FFF7E0FA0546022C0AD130684A
:103CE000384200D1C3E0FFF7D7FA411B0320022975
:103CF000F5D9DDE030683842DFD0FFF7CDFA411B5F
:103D000003200229F6D9D3E071680140082905D1C2
:103D10000320C003716801408142A7D0706B0599F0
:103D2000096A002900D18FE001210A041043706361
:103D30004C04FFF7B1FA0546706B20429DD1FFF7A6
:103D4000ABFA411B03200229F6D9B1E00421084354
:103D50007063706B012188437063FFF79DFA05461D
:103D6000706B800700D478E7FFF796FA411B0320B9
:103D70000229F5D99CE0042108433062306A039996
:103D800008433062FFF788FA0546306A80071BD483
:103D9000FFF782FA401BB842F7D9032007B0F0BD05
:103DA000039988433062306A042188433062FFF708
:103DB00073FA0546306A800706D5FFF76DFA411B96
:103DC0000320B942F6D973E002980028059C00D080
:103DD00070E6F06901998843F0616BE68A0410434C
:103DE00030600904306808431EE00A0490433060E4
:103DF0008804316881433160FFF74EFA0546059C1F
:103E00003068384200D129E6FFF746FA411B03200B
:103E10006429F5D94CE0C046001002400A049043E2
:103E200030608904306888433060FFF735FA054612
:103E30003068384200D011E6FFF72EFA401B6428A4
:103E4000F6D9032007B0F0BD01210A049043706346
:103E50004C04FFF721FA0546706B204200D10CE7B5
:103E6000FFF71AFA411B03200229F5D920E0F06A76
:103E70000F218843059A116B0143F1627B20C00337
:103E800071688143D06A0843916A01437160306868
:103E9000049908433060FFF7FFF904463068384260
:103EA00000D00AE7FFF7F8F9011B03200229F5D932
:103EB00007B0F0BD0070004088130000401E010EE6
:103EC00001D0012070470749074A5060074803683E
:103ED0000B400321890759180160002090600721D9
:103EE00011607047FFFFFF0010E000E020ED00E0F0
:103EF0007047704710B53C22825C012A01D1022034
:103F000010BD02463C32022353700068436870249F
:103F1000A3430C681C43836844608A4CA04207DCBE
:103F20000124A407A04209D0894CA04206D00AE08F
:103F3000854CA04202D0854CA04204D18024A343EA
:103F4000496819438160002010700121517010BD33
:103F500070B5002829D005463C356978002905D17F
:103F600000212970044600F06FF820460221697094
:103F70000268166801218C07A24205D0734B9A4251
:103F800002D0734B9A4219D170239E438368334306
:103F90006C4EB24216DD274CA24208DC6B4CA242AA
:103FA00018D0694CA24215D042E0012070BD224CCD
:103FB000A2420FD0214CA2420CD039E03346614ED0
:103FC000B242E8DCA24205D0614CA24202D01C4CB5
:103FD000A2422DD103242402A34304691C4380235D
:103FE0009C43836923431360C368D362436893622D
:103FF000144BD3180A24E341072B06D80C469C40E7
:10400000E1231C4201D04069106351611069C0076F
:1040100002D0106988431061A972A970E9702971F2
:104020006971A971E971297269726970002070BDA6
:104030001C46D4E7FF4301400048014000440140D2
:104040000020004000D4FEBF10B582B001681248C5
:1040500081420DD00120820791421BD10F490A688D
:1040600002430A60096801400191019802B010BD45
:104070000A48016810221143016000681040009056
:1040800000981124002120460A46FFF71BFB20461A
:10409000FFF70CFB02B010BD001000401C100240E6
:1040A0003D21415C01290FD101463D3102220A70B8
:1040B00000682449884209DC0121890788420BD025
:1040C0002349884208D00CE0012070471E498842ED
:1040D00002D01E49884204D1816807220A40062A7C
:1040E00003D0016801220A43026000207047C046E5
:1040F0003D21415C012912D101463D3102220A7065
:104100000068C26801210A43C2600E4A904208DC7E
:104110008A0790420BD00E4A904208D00CE0012052
:104120007047094A904202D0084A904204D18268FE
:1041300007231340062B02D002680A4302600020C6
:104140007047C046FF2B014000400140002C014059
:1041500000040040F0B53C22825C012A01D102201B
:10416000F0BD02463C3202235370504E3346773B3B
:104170000468A0681840A0600D6800234F2D1FDC64
:104180001F2D36DD202D38D0302D36D0402D00D0DB
:1041900087E0206A256A0126B5432562A569F026D5
:1041A000B543CE6836012E43A6610A25A843496867
:1041B00001432162A06847210143302081436AE026
:1041C0006F2D26DD01204703BD4257D000038542F5
:1041D00018461AD0702D64D1A06830404D688E68A2
:1041E000C9682E43090231430143A160A0687721C9
:1041F00050E0002D01D0102D53D1A06870218843CC
:10420000054307202843A060184613700121517010
:10421000F0BD502D1BD0602D43D1256A1020C04326
:10422000266A064026620F263603A769B743CE6882
:1042300036033E43A661A026B543496809012943D8
:104240002162A16867250D430540A56024E0206A2E
:10425000256A0126B5432562A569F026B543CE68D7
:1042600036012E43A6610A25A8434968014321620D
:10427000A06857210143202081430CE0A568354008
:104280004E688F68C9683743090239432943A160E2
:104290008003A1680143A160184613700121517089
:1042A000F0BD0120137001215170F0BDFF00FFFF30
:1042B0007047F0B585B004460068C56802272946F6
:1042C00039404A424A410169049139404B424B41CD
:1042D000134380210291C9430391002B13D1039909
:1042E0007E310161012121778069800703D020465A
:1042F000FFF7DEFF05E0204600F0B8F8204600F0AA
:10430000B6F80020207701260422294611404842B1
:10431000484104994907314600D50146032000026F
:104320000190002916D10092206803997C31016127
:10433000277780690199084203D02046FFF7B8FF2C
:1043400005E0204600F092F8204600F090F80020AA
:104350002077009A08272946394048424841049965
:104360000907314600D50146002913D12068039979
:10437000783101612277C069800703D02046FFF7BA
:1043800097FF05E0204600F071F8204600F06FF836
:104390000020207710212940484248410499C9064D
:1043A000314600D50146002914D1206803997031A7
:1043B00001612777C0690199084203D02046FFF7C1
:1043C00077FF05E0204600F051F8204600F04FF856
:1043D0000020207701212940484248410499C9071B
:1043E000314600D00146002906D1206803997F316B
:1043F0000161204600F03CF80299294048424841BA
:1044000004990906314600D50146002905D12068E6
:10441000039901612046FFF76BFD40212940484286
:10442000484104994906314600D50146002906D184
:104430002068039940310161204600F06DF820208A
:104440000540684268410499890603D4002E04D0CF
:1044500005B0F0BD0646002EFAD120680399603100
:1044600001612046FFF745FD05B0F0BD704770477C
:1044700070B582B000682249884201D002B070BD98
:104480002048FEF77FFB0124E1030001484001A919
:1044900008801D4E30463C30321D234601F0DEF8C8
:1044A0000420355EE91728462A460B46FBF7B7FE7F
:1044B000726A336AC01830624A417262B068401C46
:1044C000B060307800280ED1104885420BDB1148CF
:1044D0000068406A7169002903D07169411AB161AD
:1044E0007470706106E03078012804D10848854274
:1044F00001DC002434700348FEF720FC02B070BDDC
:1045000000100040D801002088010020C5090000EB
:104510003BF6FFFF6C0200207047B0B500281DD0AD
:104520000446C06F002805D1782000212154204680
:1045300000F02AF82420E067206801680125A943DB
:104540000160606A002802D0204600F0FFFD20468E
:1045500000F0CEFE002803D02846B0BD0120B0BD3B
:104560000920C00221684A6882434A6088682A227A
:10457000904388600868012202430A60204600F0E8
:104580004FFE05462846B0BD80B586B00021059196
:1045900004910391029101910068124A904201D066
:1045A00006B080BD10488268012305935B041A435E
:1045B000826082681A400092009A02681A43026080
:1045C000006818400090032004900391022002909C
:1045D0000C2001900920C006009901A9FEF784FD76
:1045E00006B080BD0044004014100240F0B587B012
:1045F0000693044680202058202812D10E46012719
:1046000000290BD0002A09D001273903A06888426D
:104610000BD1F00709D02069002806D1384607B031
:10462000F0BD0227384607B0F0BD0397019125463B
:1046300058352146803100274F60222002910860C2
:1046400027660492FEF728FE05900498688028806B
:10465000A068002810D003990907884207D0019963
:1046600088420ED1206900280ED0FF210DE020697C
:10467000002804D03F2014E02069002810D07F20BB
:104680000FE0AF8004970EE07D49A98000280396D3
:1046900001D000220392002800D10646049109E0CF
:1046A000FF200490A880039704E03070761C68888F
:1046B000401E68806888002817D006980090202146
:1046C000002720463A46059B00F0DCFE00280BD16F
:1046D0002068808C04990840002EE6D10399088058
:1046E000891C03910026E2E7032720200299086035
:1046F000384607B0F0BDC046F0B585B00446C06F7F
:10470000202810D1012000290BD0002A09D0012037
:104710000503A668AE4209D1CE0707D02669002E50
:1047200004D105B0F0BD022005B0F0BD01930291A7
:104730002746503720468430002103910160212014
:10474000E0671646FEF7A8FD04907E803E80A068D4
:10475000A84202D1206900285ED0029D019E039AE2
:104760002168788800285ED0701C454B2ED0002E22
:1047700049D00392C869000608D4FEF78DFD04995C
:10478000401AB04266D821680868F3E7002D03D0CC
:10479000287808856D1C07E0039A1088384B18406C
:1047A0000885921C039200257888401E78807888BE
:1047B0000028DFD137E0108818400885921C0025BA
:1047C0007888401E7880788800282CD0C869000638
:1047D00008D4C869000605D4C869000602D4C869AF
:1047E0000006F3D5002DE6D0287808856D1CE7E794
:1047F000108818400885921C00257888401E788013
:10480000788800280FD0C869000621D5002DEFD088
:10481000287808856D1CF0E70025029A019E216822
:1048200078880028A0D1CA690020520613D4002E2F
:104830000ED0721C13D1CA6952060CD4CA69520632
:1048400009D4CA69520606D4CA695206F3D502E0F1
:10485000FEF722FD03202021E16705B0F0BD0546EB
:10486000FEF71AFD0499401AB042F3D82068016897
:10487000C0694006F4D528462021E16705B0F0BDA7
:10488000FF010000FEE70000F0B585B00E460446CB
:104890004030049020688169C90606D400210F4683
:1048A00001258269D30543D446E01021C1618169A5
:1048B000890635D4711C30D015460120002E6AD1EE
:1048C00086030390C703FEF7E7FC2068426804995B
:1048D000897883693B4209D0324007D1202905D02D
:1048E000416831434160FEF7D7FC05462068816985
:1048F000890605D4FEF7D0FC401B1A28F6D375E0D4
:1049000081698906DFD50BE08169890608D4816950
:10491000890605D48169890602D481698906F3D59F
:104920002021C1610127042101258269D30503D516
:104930002B02C36129432F466B02560506D41A4247
:104940000AD1002F0BD1002005B0F0BDAD02C5612A
:10495000082529431A4202D0C36102221143826909
:10496000920701D5002282628269D20703D182694F
:104970000123134383614268214B13404360606C01
:1049800008436064202004994870002008708870F3
:10499000012005B0F0BD810302910390C003019096
:1049A000019F02E081698906BAD4FEF775FC411BBC
:1049B0002068B142F6D942680499897883693B42FC
:1049C0000BD0029B1A4008D1202906D04168029AD8
:1049D00011434160FEF760FC054620688169890645
:1049E000E0D4FEF759FC401B1A28F6D320688169F1
:1049F0002421039F01258269D30599D49CE7C046F1
:104A000000E800FE10B50446002100F0B5F91021C1
:104A1000204600F0B1F9C2480068C24901F092FB9B
:104A20007D21C90041434008081ABF490A680B6844
:104A3000D31A83420BD20B68D31A834207D20B6876
:104A4000D31A834203D20B68D31A8342EFD30A6886
:104A50000B68D31A83420BD20B68D31A834207D256
:104A60000B68D31A834203D20B68D31A8342EFD365
:104A700010BDC046F0B581B00446FEF70DFC3228EB
:104A8000FBD33021204600F077F90021204600F0CA
:104A900073F9F44E3068F44901F054FB7D21CD00E8
:104AA000294641434008081AED4F39683A688A1A86
:104AB00082420BD23A688A1A824207D23A688A1A2C
:104AC000824203D23A688A1A8242EFD339683A683E
:104AD0008A1A82420BD23A688A1A824207D23A680C
:104AE0008A1A824203D23A688A1A8242EFD339681C
:104AF0003A688A1A82420BD23A688A1A824207D2EC
:104B00003A688A1A824203D23A688A1A8242EFD3FA
:104B100039683A688A1A82420BD23A688A1A824203
:104B200007D23A688A1A824203D23A688A1A8242C3
:104B3000EFD339683A688A1A82420BD23A688A1AE5
:104B4000824207D23A688A1A824203D23A688A1AA3
:104B50008242EFD33021204600F00EF9002120469A
:104B600000F00AF93068C04901F0ECFA29464143E7
:104B70004008081A39683A688A1A82420BD23A68A1
:104B80008A1A824207D23A688A1A824203D23A6863
:104B90008A1A8242EFD339683A688A1A82420BD263
:104BA0003A688A1A824207D23A688A1A824203D243
:104BB0003A688A1A8242EFD339683A688A1A82427E
:104BC0000BD23A688A1A824207D23A688A1A82421B
:104BD00003D23A688A1A8242EFD339683A688A1A4D
:104BE00082420BD23A688A1A824207D23A688A1AFB
:104BF000824203D23A688A1A8242EFD3009539681A
:104C00003A688A1A82420BD23A688A1A824207D2DA
:104C10003A688A1A824203D23A688A1A8242EFD3E9
:104C20003021204600F0A8F80021204600F0A4F82A
:104C30003D6830688C4901F085FA9621414340086F
:104C4000081A3968691A81420BD23968691A814297
:104C500007D23968691A814203D23968691A8142D8
:104C6000EFD300252046294600F086F8202620466E
:104C7000314600F081F82046314600F07DF8802171
:104C8000204600F079F82046294600F075F8C0214A
:104C9000204600F071F82046294600F06DF86021AA
:104CA000204600F069F860006B4904220A54081895
:104CB000082141702046294600F05EF81021204668
:104CC00000F05AF867480068674901F03BFA00991C
:104CD00041434008081A39683A688A1A82420BD25E
:104CE0003A688A1A824207D23A688A1A824203D202
:104CF0003A688A1A8242EFD339683A688A1A82423D
:104D00000BD23A688A1A824207D23A688A1A8242D9
:104D100003D23A688A1A8242EFD301B0F0BDC0468E
:104D20001400002040420F0018E000E0B0B50C2352
:104D300043430C4CE3189B7A9A4200D95A1ED2B2D4
:104D4000920009A39A5C8D1880222A43F021114019
:104D5000044600F011F82807010E204600F00CF878
:104D6000B0BDC046D0650008000000004000000053
:104D70001400000054000000F0B589B00F46410057
:104D8000354A511805914978394306AA11706426AD
:104D900000960C214143314840184568007A440090
:104DA0000123019328462146FEF716FB059840781B
:104DB000029738430421014307AA11700496009614
:104DC000039528462146019BFEF706FB244F3E68CB
:104DD00024480068244901F0B5F941084000411A0F
:104DE0000598401C3A68B21A8A420BD23A68B21A45
:104DF0008A4207D23A68B21A8A4203D23A68B21A91
:104E00008A42EFD3FB21029A0A400078104308AA95
:104E1000107004980090012303982146FEF7DCFAF5
:104E20003C6810480068104901F08CF93221414378
:104E30004008081A3968611A81420BD23968611A30
:104E4000814207D23968611A814203D23968611AF6
:104E50008142EFD309B0F0BDD4010020D065000835
:104E600018E000E01400002040420F0070B50E78FA
:104E7000002E13D004464D1C01203043F121014087
:104E80002046FFF779FF3001401CC1B22046FFF7F2
:104E900073FF681C2E78002E0546EDD170BDF0B56D
:104EA00085B00D460446006880690840401A4142BA
:104EB0004141002604928A4223D11F460A9A581C77
:104EC00003922BD0002F029433D100262046314686
:104ED000FFF7DAFC002828D1FEF7DEF920688169A7
:104EE0002940491B4A424A4104999142039A44D0BD
:104EF00080692840401B4142414104988842029CFD
:104F0000E3D0304605B0F0BD206880692840401BE2
:104F10004142414104988842039AF2D10026F1436C
:104F20002046FFF7B1FC0028EED00126304605B040
:104F3000F0BD019507E080692840401B4142414196
:104F400004988842DDD13446029E304639461546E3
:104F5000FFF79AFC0028E8D1FEF79EF9411B306864
:104F6000B9422A462646019DE5D981692940491B57
:104F70004B424B4104999942DDD1029B1846403087
:104F8000596C2022114359644270002101708170D4
:104F90000126304605B0F0BDF0B581B00546006889
:104FA00080690024800622D416460F46002903D1CA
:104FB00029E0806980061AD4284639463246FFF730
:104FC00063FC002827D1FEF767F9811B2868B942E6
:104FD000EFD981698906ECD428464030696C2022DB
:104FE00011436964427000210170817001242046E0
:104FF00001B0F0BDFEF750F9286881698906EBD54C
:1050000080698006F3D40024284621463246FFF703
:105010003BFC0028EED00124204601B0F0BDF0B5E5
:1050200081B00546006880690024800716D41646C2
:105030000F46481C19D0002F26D1002428462146AF
:105040003246FFF721FC002838D1FEF725F9286801
:105050008169890728D580698007EED5204601B08F
:10506000F0BD286880698007F8D40024E143284611
:105070003246FFF709FC0028F3D00124204601B096
:10508000F0BD80698007E9D4284639463246FFF7EB
:10509000FBFB002812D1FEF7FFF8811B2868B942FC
:1050A000EFD981698907ECD428464030696C202209
:1050B000114369644270002101708170012420460F
:1050C00001B0F0BDFEE7704770470000F0B585B055
:1050D000FDF7F6FF01200490134C0394002002908A
:1050E00002A801A9FDF75CFE002803D0FDF7C8FE69
:1050F00005B0F0BD0D4F3A6B022600253046214623
:105100002B46FDF7C7FE7A6B211D30462B46FDF777
:10511000C1FEBA6B0834304621462B46FDF7BAFE75
:10512000FDF7AEFE05B0F0BD00F8000888010020D4
:1051300080B5FEF76DFA80BD7047000080B502486B
:10514000FFF7B7F880BDC046B4020020B0B5416A91
:105150000A070CD4CA0714D18A071CD44A0724D4DE
:10516000CA062CD48A0634D44A063CD44CE0012228
:10517000D20303685C689443426B22435A60CA07B7
:10518000EAD00122520403685C689443826A224395
:105190005A608A07E2D50122120403685C689443CE
:1051A000C26A22435A604A07DAD501229204036890
:1051B0005C689443026B22435A60CA06D2D501222E
:1051C000120303689C689443826B22439A608A06A8
:1051D000CAD50122520303689C689443C26B2243E0
:1051E0009A604A0610D501221305026854689C4350
:1051F000056C2C4354609D4206D103235B05546823
:105200009C43436C23435360090607D50121C9041D
:10521000026853688B43806C18435060B0BD000037
:10522000F0B583B00446064678360025F560FEF7F3
:1052300033F8034620680168090721D502952B48F9
:10524000009001256905002220461F4600F01AF94A
:10525000002812D0EFF3108085F3108821680A68C7
:1052600080239A430A6080F31088032020227C2147
:10527000029D6250357003B0F0BD20683B46029D30
:105280000068400726D5194800900127B90500227B
:10529000204600F0F7F800281CD0EFF3108087F3C9
:1052A000108809214901226813688B43136080F339
:1052B0001088EFF3108087F3108821688A68BA435A
:1052C0008A6080F31088032020228021625035708C
:1052D00003B0F0BD2020E067B060256664212A4657
:1052E00028466250357003B0F0BDC046FFFFFF0195
:1052F000B0B5044600680168524A0A40A1682369B3
:105300000B4365691D431543E1690D4305600322A5
:10531000120343689343E2681A434260A269236A16
:1053200013430B221202856895431D4385600022BA
:10533000454B98420CDC4A4B984213DC4B4A904256
:1053400024D04B4A904229D14A480068000C20E002
:105350003E4B98420DDC404B984220D03F4B984248
:105360001DD01BE03F4B984219D03F4B984216D0BE
:1053700014E0374B984212D0364A90420ED13D4845
:1053800000688007000F3C4A125808E0394800685E
:10539000800B0C2202403848825800E01022012580
:1053A000EB03364899420FD1082A46D87A4412793D
:1053B0005200974404422442194242422300FEF71D
:1053C000F5FA00281BD137E0082A36D87A4412793A
:1053D00052009744043225320E3232322400FEF756
:1053E000E5FA00281CD127E0FEF7EEFA002806D1E6
:1053F00022E0FEF7E9FA002812D11DE0184640002D
:1054000061684A08101800F09DFE0246103A1C49D7
:105410008A4212D201400007400F08430AE01846B2
:1054200061684A08101800F08DFE01461039144AD0
:10543000914202D22168C86000250020A066E06683
:105440002846B0BDF369FFEFFF130140FF1B014089
:10545000001C0140003801400014014000180140C8
:10546000FF4B0040004C0040005000400044004012
:105470000048004030100240FC65000800127A002D
:10548000F0FF0000F0B585B01F4615460E460368D4
:10549000D9693140891B4A424A410021954222D1B3
:1054A0000A9C002C22D00391611C24D1D96931407F
:1054B000891B4A424A41954231D1D9693140891B01
:1054C0004A424A4195422AD1D9693140891B4A4210
:1054D0004A41954223D1D9693140891B4A424A4108
:1054E0009542E3D01BE0084605B0F0BDFDF7D4FEC1
:1054F000032005B0F0BD402E049001D0802E14D1C1
:10550000FDF7CAFEC01BA0420CD8049800680168D1
:10551000C0693040801B414241418D42F0D0039828
:1055200005B0F0BD032005B0F0BD7830019001203A
:105530000090C002029006E0C8693040801B4142E2
:1055400041418D42EBD1FDF7A7FEC11B0320A142D3
:105550003ED8049909680A685207EDD5CA6912074E
:1055600038D4CA69029B1A42E6D0029A0A62EFF363
:105570001082012181F3108809235B01049C2468B7
:1055800025689D43256082F31088EFF3108281F334
:105590001088049B1B689C688C439C60049B82F36E
:1055A00010881A6E012A0BD1EFF3108281F3108854
:1055B00019680B681024A3430B60049B82F31088C6
:1055C0002021019CA16000221A669A662270E16087
:1055D00005B0F0BD08250D62EFF31081009880F34F
:1055E000108809225201049B1B681C6894431C60AC
:1055F00081F31088EFF3108180F31088049A126809
:10560000936883439360049B81F31088196E01298A
:105610000CD1EFF31081012282F310881A6813680D
:105620001024A3431360049B81F310882021019A66
:1056300091600021196699661170D56005B0F0BDC2
:10564000B0B51C460546049828732970AA60C900A5
:105650001846FAF73DFF6C60B0BD0000F0B591B0A0
:105660000D920C910493002B6BD00C2102914156AA
:105670000F22511A109100254257D3B2D107446826
:1056800081685CD0019303920A20085E0B90082089
:10569000085E0A900620085E09900420085E0890C3
:1056A0000591485F0790E188A08863880694228866
:1056B000049E09E00D994853A2B2AD1C761E0E9FC0
:1056C00039460F9C23462CD00446174618B2099A37
:1056D0005043C2170E9423B20A9C6343DC17181878
:1056E000544109B20B9A5143CA17401862410F97AF
:1056F00039B2089B5943CB17401853410C994C5F62
:10570000079A6243D11780185941109AFAF774FD2D
:105710006549884200DC644864498842CADB6348C2
:10572000C8E72146069CE780A08061802280039A1A
:10573000521E083405990C310D980C90019B012BD9
:105740000FD111B0F0BD069CE781A0816581228157
:10575000039A921E103405991831002A0D980C9066
:10576000EFD003920A20085E0B900820085E0A9092
:105770000620085E09900420085E08900027059125
:10578000C85F0790E188A088638806942288049CFB
:1057900009E00D99C853AAB2BF1C641E0E9E314683
:1057A0000F9D2B462CD00546164618B2099A504339
:1057B000C2170E952BB20A9D6B43DD171818554181
:1057C00009B20B9A5143CA1740186A410F9631B279
:1057D000089B5943CB17401853410C99CD5F079A4A
:1057E0006A43D11780185941109AFAF705FD2E49DE
:1057F000884200DC2C482D498842CADB2B48C8E788
:10580000069CE680A0806580228016200599085EAF
:105810000C901420085E0B901220085E0A90102055
:10582000085E09900298085E0890E189A089638962
:105830002289049E0D9C0AE02080AAB2761EA41C38
:10584000002E0E9F39460F9D2B4600D17BE7054663
:10585000174618B20A9A5043C2170E952BB20B9DE9
:105860006B43DD171818554109B20C9A5143CA17FA
:1058700040186A410F9739B2099B5943CB1740181A
:1058800053410021655E089A6A43D1178018594137
:10589000109AFAF7B1FC0449884200DC0248034937
:1058A0008842C9DB0148C7E70080FFFFFF7F000097
:1058B00080B582B001900020C343044801A90122B1
:1058C000FEF71AFF019802B080BDC046FC0200201E
:1058D000A6B0FDF7A7FE00261D961B9620961F96E4
:1058E0001E961C961A9619961220189001201D904B
:1058F0001B901296119610960F960E960D96249068
:105900000521C9042391C003229002272197102466
:105910001E941C9418A8FEF787F8002803D0EFF314
:10592000108072B6FEE7179616961597072014900A
:1059300014A801252946FDF787FF002803D0EFF3BF
:10594000108072B6FEE711960F9622200C900CA8DC
:10595000FDF7D4FE002803D0EFF3108072B6FEE707
:105960001C961B961A9619961896E904E748026841
:105970000A43026002680A400C920C99A905026869
:105980000A43026002680A400C920C99690402689A
:105990000A43026002680A400C920C99A90402684A
:1059A0000A430260006808400C900C9809200B958F
:1059B000C506284621463246FDF766FC0F20010247
:1059C0000A91DB483246FDF75FFC1B961A960B984E
:1059D00019901894099418AC089528460B9D2146F7
:1059E000FDF782FB1B961A9619950A981890D048D5
:1059F0002146FDF779FBCF48866131212F24CE4A1D
:105A000054C00160199618960C38FEF7A1FA0028C8
:105A100003D0EFF3108072B6FEE7C64818A9FEF770
:105A200069FA002803D0EFF3108072B6FEE70A94FB
:105A30002421C2484654856206620421C04AFF24DC
:105A4000C2342B0444C006604660856008380246B4
:105A500014321AC2FDF79AF8002803D0EFF3108031
:105A600072B6FEE7189628071A9028030790199037
:105A7000B24818A9FCF7E4FF002803D0EFF3108028
:105A800072B6FEE7AF480C21AF4A06624662E123D8
:105A90005B024CC0066046608160C66006610C38DF
:105AA000FEF73BFD002803D0EFF3108072B6FEE74F
:105AB000A648A749A74A026041608660C5600661A2
:105AC00046618661C6610662FDF72CFC002803D0A2
:105AD000EFF3108072B6FEE79C480021FDF7E0FB73
